:020000040800F2
:100000000028002099140008291400082F14000863
:10001000351400083B1400084114000800000000DB
:10002000000000000000000000000000471400086D
:1000300053140008000000005F1400086B1400084F
:10004000E1140008E1140008E1140008E1140008BC
:10005000E1140008E1140008E1140008E1140008AC
:10006000E1140008E1140008E1140008E11400089C
:10007000E1140008E1140008E1140008E11400088C
:10008000E1140008E1140008E1140008E11400087C
:10009000E1140008E1140008E1140008E11400086C
:1000A000E1140008E1140008E1140008E11400085C
:1000B00079140008E114000800000000E1140008B1
:1000C000E11400080000000000000000E114000836
:1000D00000000000E1140008E11400080000000026
:1000E000E1140008E1140008E11400080000000019
:1000F0000000000000000000000000000000000000
:0C01000000000000000000005FF808F1A3
:10010C0010B5054C237833B9044B13B10448AFF345
:10011C0000800123237010BD5C0000200000000053
:10012C00282B000808B5034B1BB103490348AFF358
:10013C00008008BD0000000060000020282B000893
:10014C0080B500AFA74B1B682C2B6FD02C2B00F36A
:10015C003F812A2B03D02B2B00F0CF8038E1A24B10
:10016C001B68012B0AD1192001F0EEF820219F48C1
:10017C0001F0CBFC04219D4801F0C7FC9C4B1B6893
:10018C00012B13D19B4B1B68184601F0B5F89A4B09
:10019C001B68032B02DD984B00221A60964B1B68E0
:1001AC005A1C95490A60184600F09EFE00F09AFC15
:1001BC000346012B0DD1914B1B6801338F4A136001
:1001CC008E4B1B680121184600F026FE8A4B00223C
:1001DC001A6000F0A5FC0346012B40F0FB800122C5
:1001EC0040F6FC71814801F078FC01227F218448A3
:1001FC0001F073FC7B4B22221A6000F055FC00F0DE
:10020C0071FC00F08DFC7C4B00221A600221002056
:10021C0000F002FE192001F097F8764B1B68184687
:10022C0001F06AF8724B01221A60D3E06E4B1B6826
:10023C00012B0AD1192001F087F880216B4801F0BD
:10024C0064FC1021694801F060FC694B1B68012BB0
:10025C0013D1684B1B68184601F04EF8664B1B68AF
:10026C00032B02DD644B00221A60634B1B685A1C83
:10027C0061490A60184600F037FE00F033FC034673
:10028C00012B0DD15F4B1B6801335E4A13605D4B34
:10029C001B680221184600F0BFFD574B00221A6064
:1002AC0000F03EFC0346012B40F09680012240F604
:1002BC00FC714E4801F011FC01227F21504801F0E5
:1002CC000CFC484B21221A6000F0EEFB00F00AFCFB
:1002DC0000F026FC484B00221A600321002000F09D
:1002EC009BFD192001F030F8424B1B68184601F0B9
:1002FC0003F83F4B01221A606EE03B4B1B68012B4D
:10030C000AD1192001F020F84021384801F0FDFBFA
:10031C000821364801F0F9FB354B1B68012B13D132
:10032C00344B1B68184600F0E7FF334B1B68032B5C
:10033C0002DD314B00221A602F4B1B685A1C2E49D0
:10034C000A60184600F0D0FD00F0CCFB0346012BF0
:10035C000DD12C4B1B6801332A4A1360294B1B68A7
:10036C000221184600F058FD234B00221A6000F0C1
:10037C00D7FB0346012B31D1234B1A68214B1B6849
:10038C001A441E4B1B689A4203D1164B15221A6055
:10039C0024E01D4B1A681B4B1B681A44174B1B6837
:1003AC009A420ADA154B1A68164B1B68D31A164A6E
:1003BC0013600C4B15221A6010E0134B1A68114B8A
:1003CC001B6813440D4A1360064B15221A6005E096
:1003DC0000BF04E000BF02E000BF00E000BF00BFB0
:1003EC0080BD00BF88000020A8000020000801404C
:1003FC00A0000020542B00088400002044000020A2
:10040C00000C01404C0000204800002080B500AFDB
:10041C00B84B1B681F3B032B00F2C48101A252F89E
:10042C0023F000BF410400088F0400085F06000899
:10043C006B050008012240F6FC71AF4801F04DFB42
:10044C0001227F21AD4801F048FBAD4B00221A6020
:10045C0000F02AFB00F046FB00F062FBA54B2022CB
:10046C001A60A84B1B68184600F046FFA64B0122E9
:10047C001A600121002000F0CFFC192000F064FF6D
:10048C0097E1A24B1B68012B0AD1192000F05CFFED
:10049C002021994801F039FB0421974801F035FBE4
:1004AC00994B1B68012B13D1964B1B68184600F017
:1004BC0023FF934B1B68032B02DD914B00221A6028
:1004CC008F4B1B685A1C8E490A60184600F00CFDB5
:1004DC0000F0EAFA0346012B1AD1864B22221A604D
:1004EC0000F0E2FA00F0FEFA00F01AFB844B002256
:1004FC001A600221002000F08FFC192000F024FF6C
:10050C00804B1B68184600F0F7FE7F4B01221A60E7
:10051C0000F0E8FA0346012B40F04681012240F638
:10052C00FC71754801F0D9FA01227F21734801F062
:10053C00D4FA734B00221A60754B01221A60744B6B
:10054C001B680121184600F067FC6A4B2A221A60CE
:10055C0000F0AAFA00F0C6FA00F0E2FA24E16B4BC4
:10056C001B68012B1ED1192000F0EEFE0122202168
:10057C00614801F0B2FA012204215F4801F0ADFAA2
:10058C00012240215C4801F0A8FA012208215A48B6
:10059C0001F0A3FA8021584801F0B7FA102156480F
:1005AC0001F0B3FA584B1B68012B13D1554B1B6848
:1005BC00184600F0A1FE524B1B68032B02DD504B7A
:1005CC0000221A604E4B1B685A1C4D490A60184693
:1005DC0000F08AFC00F068FA0346012B12D1454B5F
:1005EC0021221A6000F060FA00F07CFA00F098FA10
:1005FC00434B00221A600321002000F00DFC19204F
:10060C0000F0A2FE00F06EFA0346012B40F0CE8003
:10061C00012240F6FC71384801F05FFA01227F217B
:10062C00364801F05AFA364B00221A60394B012237
:10063C001A60384B1B680221184600F0EDFB2D4B5D
:10064C002C221A6000F030FA00F04CFA00F068FA34
:10065C00ACE02E4B1B68012B1ED1192000F074FE50
:10066C0001222021244801F038FA012204212248D9
:10067C0001F033FA012280211F4801F02EFA0122E9
:10068C0010211D4801F029FA40211B4801F03DFAC8
:10069C000821194801F039FA1B4B1B68012B13D1A7
:1006AC00184B1B68184600F027FE154B1B68032BD4
:1006BC0002DD134B00221A60114B1B685A1C1049A7
:1006CC000A60184600F010FC00F0EEF90346012B0E
:1006DC0042D10B4B00221A600F4B1A680D4B1B6852
:1006EC001A440B4B1B689A4218D1024B15221A6004
:1006FC0032E000BF8800002000080140000C0140DF
:10070C0084000020542B0008A0000020A80000202A
:10071C00440000204C00002048000020264B1A68A2
:10072C00264B1B681A44264B1B689A420ADA244B48
:10073C001A68224B1B68D31A1F4A1360214B1522CF
:10074C001A6009E01C4B1A681C4B1B6813441C4AAA
:10075C0013601C4B15221A6000F0C4F90346012BE0
:10076C0026D1012240F6FC71174801F0B6F901229E
:10077C007F21164801F0B1F9154B00221A600E4B7F
:10078C0001221A600C4B1B680321184600F044FB35
:10079C000C4B2B221A6000F087F900F0A3F900F043
:1007AC00BFF905E000BF04E000BF02E000BF00E0BD
:1007BC0000BF00BF80BD00BF480000204C000020DF
:1007CC00440000208800002000080140000C01407B
:1007DC008400002080B500AFA94B1B68153B042B8F
:1007EC0000F2428101A252F823F000BF0D0800086C
:1007FC0061080008E70800086D090008F109000805
:10080C000122FC219F4801F068F99F4B00221A60DD
:10081C009B4B16221A609D4B1B68184600F000FD7E
:10082C009B4B1B68994A12681146184600F0F4FA63
:10083C00984B1B68184600F05FFD974B01221A601D
:10084C00642000F06DFD00F02FF900F04BF900F082
:10085C0067F912E100F05CFA00F0B2FA8E4B1B68FB
:10086C00012B13D18B4B1B68184600F045FD864BB2
:10087C001B68032B02DD844B00221A60824B1B6821
:10088C005A1C81490A60184600F02EFB834B1B68EA
:10089C00012B04D100F0FCFA642000F041FD804BE8
:1008AC001B68012B0FD17F4B1B68184600F0B8FC5E
:1008BC00734B17221A607B4B1B687A4A12681146DD
:1008CC00184600F0A9FA00F0EFF80346012B40F0AF
:1008DC00CD806B4B1F221A60C8E000F019FA00F0B3
:1008EC0085FA6D4B1B68012B13D1674B1B68032BCF
:1008FC0002DD654B00221A60634B1B685A1C62496F
:10090C000A60184600F0F0FA624B1B68184600F0BB
:10091C00F3FC624B1B68012B04D100F0B9FA642084
:10092C0000F0FEFC5E4B1B68012B0FD1574B1B6874
:10093C00184600F075FC524B18221A60534B1B687A
:10094C00534A12681146184600F066FA00F0ACF8EB
:10095C000346012B40F08C80494B1F221A6087E024
:10096C0000F0ECF900F016FA4B4B1B68012B13D17D
:10097C00454B1B68032B02DD434B00221A60424B94
:10098C001B685A1C40490A60184600F0ADFA414BEE
:10099C001B68184600F0B0FC404B1B68012B04D1BF
:1009AC0000F076FA642000F0BBFC3D4B1B68012B79
:1009BC000FD13C4B1B68184600F032FC304B19220F
:1009CC001A60384B1B68374A12681146184600F0FB
:1009DC0023FA00F069F80346012B4BD1284B1F2258
:1009EC001A6047E000F0C0F900F0D4F92A4B1B68FC
:1009FC00012B13D1244B1B68032B02DD224B00224D
:100A0C001A60214B1B685A1C1F490A60184600F0DB
:100A1C006BFA204B1B68184600F06EFC1F4B1B68D2
:100A2C00012B04D100F034FA642000F079FC1C4B4B
:100A3C001B68012B0FD1154B1B68184600F0F0FBFF
:100A4C000F4B16221A60124B1B68104A1268114683
:100A5C00184600F0E1F900F027F80346012B0BD102
:100A6C00074B1F221A6007E000BF06E000BF04E03E
:100A7C0000BF02E000BF00E000BF00BF80BD00BFB0
:100A8C00880000200008014084000020480000205D
:100A9C0044000020542B0008A0000020A4000020DB
:100AAC009C0000204C00002080B400AF064B1B685B
:100ABC00012B04D1044B00221A60012300E0002317
:100ACC001846BD4680BC70477800002080B400AF4B
:100ADC00034B01221A6000BFBD4680BC704700BFAB
:100AEC007800002080B400AF064B1B68012B04D1AA
:100AFC00044B00221A60012300E000231846BD4677
:100B0C0080BC70477C00002080B400AF034B0122F6
:100B1C001A6000BFBD4680BC704700BF7C0000203F
:100B2C0080B400AF064B1B68012B04D1044B002290
:100B3C001A60012300E000231846BD4680BC7047B4
:100B4C008000002080B400AF034B01221A6000BF6C
:100B5C00BD4680BC704700BF8000002080B500AF50
:100B6C005C4B1B685C4A13605C4B1B68594A1360F6
:100B7C004FF400515A4800F099FF03461A46574B60
:100B8C001A60554B1A68534B1B689A4225D1514B2E
:100B9C001A68524B1B689A421FD1524B1A684F4B22
:100BAC001B689A420DD04D4B1B684E4A13604B4B41
:100BBC001B68002B11D1FFF789FF4B4BC8221A6021
:100BCC000BE0494B1B68013B474A1360464B1B68C3
:100BDC00002B02D1434B01221A60444B1B68444A40
:100BEC001360444B1B68414A13604FF480414248E8
:100BFC0000F05CFF03461A463E4B1A603C4B1A68E9
:100C0C003A4B1B689A4225D1384B1A68394B1B68F2
:100C1C009A421FD1394B1A68364B1B689A420DD039
:100C2C00344B1B68354A1360324B1B68002B11D1B7
:100C3C00FFF76AFF2C4BC8221A600BE02A4B1B688B
:100C4C00013B294A1360284B1B68002B02D12B4B0C
:100C5C0001221A602A4B1B682A4A13602A4B1B6814
:100C6C00274A13604FF40041234800F01FFF03464E
:100C7C001A46254B1A60234B1A68214B1B689A4263
:100C8C0025D11F4B1A68204B1B689A421FD11E4B53
:100C9C001A681E4B1B689A420DD01B4B1B681B4AD3
:100CAC001360194B1B68002B11D1FFF74BFF0E4B38
:100CBC00C8221A600BE00C4B1B68013B0A4A1360FC
:100CCC00094B1B68002B02D1104B01221A6000BF8C
:100CDC0080BD00BF040000200000002008000020A0
:100CEC00001001400C0000203000002014000020F7
:100CFC001000002018000020000801401C000020FB
:100D0C002400002020000020280000202C000020BF
:100D1C0080B500AF00222021074800F0DEFE012242
:100D2C004021054800F0D9FE01228021024800F044
:100D3C00D4FE00BF80BD00BF0008014080B500AFED
:100D4C0001222021074800F0C8FE0022402105485E
:100D5C0000F0C3FE01228021024800F0BEFE00BF5D
:100D6C0080BD00BF0008014080B500AF01222021EA
:100D7C00074800F0B2FE01224021054800F0ADFE0C
:100D8C0000228021024800F0A8FE00BF80BD00BFF9
:100D9C000008014080B500AF00220421074800F094
:100DAC009CFE01220821054800F097FE012210212B
:100DBC00024800F092FE00BF80BD00BF0008014059
:100DCC0080B500AF01220421074800F086FE002206
:100DDC000821054800F081FE01221021024800F094
:100DEC007CFE00BF80BD00BF0008014080B500AF95
:100DFC0001220421074800F070FE01220821054859
:100E0C0000F06BFE00221021024800F066FE00BFCD
:100E1C0080BD00BF0008014080B483B000AF786093
:100E2C0039607B68184A82FB03129210DB17D31AC5
:100E3C00164A13607968144B83FB01239A10CB1765
:100E4C00D21A13469B0013445B00CA1A0F4B5A600C
:100E5C003B680D4A82FB03129210DB17D31A0B4A24
:100E6C0093603968084B83FB01239A10CB17D21A75
:100E7C0013469B0013445B00CA1A044BDA6000BF94
:100E8C000C37BD4680BC7047676666663400002030
:100E9C0080B400AF134B5B68002B08DC114B1B6854
:100EAC00013B104A13600F4B09225A6004E00D4BB2
:100EBC005B68013B0B4A53600A4BDB68002B08DC78
:100ECC00084B9B68013B074A9360064B0922DA608A
:100EDC0004E0044BDB68013B024AD36000BFBD4613
:100EEC0080BC704734000020B0B588B000AF78608B
:100EFC002E4B07F10C041D460FCD0FC42B6823603D
:100F0C002B4A7B6852F823305B0007F12002134414
:100F1C0033F8143CDA43274BDA607B68032B3FD859
:100F2C0001A252F823F000BF450F00085F0F000824
:100F3C00790F0008930F000801224FF460611E48DE
:100F4C0000F0CBFD00224FF480711B4800F0C5FD72
:100F5C0027E001224FF45061174800F0BEFD00223B
:100F6C004FF40071144800F0B8FD1AE001224FF460
:100F7C003061114800F0B1FD00224FF480610E4841
:100F8C0000F0ABFD0DE001224FF4E0610A4800F0E7
:100F9C00A4FD00224FF40061074800F09EFD00E024
:100FAC0000BF00BF2037BD46B0BD00BF402B0008BE
:100FBC0034000020000C01400008014080B500AF57
:100FCC0000F08AFA00F016F800F09CF800F04EF8E9
:100FDC00064801F0DFF9064B15221A60FFF7FAFB01
:100FEC00FFF714FAFFF7ACF8F8E700BFAC000020ED
:100FFC008800002080B590B000AF07F118032822BC
:10100C000021184601F082FD3B1D00221A605A6037
:10101C009A60DA601A610223BB610123BB62102360
:10102C00FB6200237B6307F11803184600F086FD72
:10103C000346002B01D000F0EDF80F237B6000235A
:10104C00BB600023FB6000233B6100237B613B1DE5
:10105C000021184600F0F2FF0346002B01D000F0EF
:10106C00D9F800BF4037BD4680BD000080B586B0C2
:10107C0000AF07F1080300221A605A609A60DA6028
:10108C003B4600221A605A601D4B4FF080421A609A
:10109C001B4B41F63F725A60194B00229A60184B59
:1010AC000922DA60164B00221A61154B00229A6154
:1010BC00134801F01FF90346002B01D000F0AAF8E9
:1010CC004FF48053BB6007F1080319460C4801F03C
:1010DC00B5FA0346002B01D000F09CF800233B60CE
:1010EC0000237B603B461946054801F081FC034612
:1010FC00002B01D000F08EF800BF1837BD4680BD24
:10110C00AC00002080B588B000AF07F110030022BE
:10111C001A605A609A60DA60344B9B69334A43F028
:10112C0010039361314B9B6903F01003FB60FB6868
:10113C002E4B9B692D4A43F0040393612B4B9B6907
:10114C0003F00403BB60BB68284B9B69274A43F040
:10115C0008039361254B9B6903F008037B607B6854
:10116C00002240F6FC71224800F0B7FC00227F21DF
:10117C00204800F0B2FC4FF400533B6100237B612C
:10118C000123BB6107F1100319461B4800F014FB47
:10119C0040F6FC733B6101237B610023BB6102239E
:1011AC00FB6107F110031946114800F005FB7F2382
:1011BC003B6101237B610023BB610223FB6107F1CF
:1011CC00100319460B4800F0F7FA4FF440433B610B
:1011DC0000237B610123BB6107F11003194604480E
:1011EC0000F0EAFA00BF2037BD4680BD0010024077
:1011FC0000080140000C01400010014080B582B095
:10120C0000AF786000F022F8FFF7A8FC00BF0837A9
:10121C00BD4680BD80B400AF72B600BFFEE70000D3
:10122C0080B483B000AF78607B68642202FB03F368
:10123C00044A1360044B00221A6000BF0C37BD46F1
:10124C0080BC70478C0000209C00002080B400AF54
:10125C00214B1B68002B0BDD1F4B1B68013B1E4AEF
:10126C0013601D4B1B68002B02DC1C4B01221A6007
:10127C001B4B1B68002B0BDD194B1B68013B184AE1
:10128C001360174B1B68002B02DC164B01221A60F3
:10129C00154B1B68002B0BDD134B1B68013B124AD3
:1012AC001360114B1B68002B02DC104B01221A60DF
:1012BC000F4B1B68002B0BDD0D4B1B68013B0C4AC5
:1012CC0013600B4B1B68002B02DC0A4B01221A60CB
:1012DC0000BFBD4680BC70478C0000209C000020E5
:1012EC0090000020A000002094000020A40000200A
:1012FC0098000020A800002080B483B000AF786074
:10130C00054A7B681360054B00221A6000BF0C373E
:10131C00BD4680BC704700BF90000020A00000209C
:10132C0080B483B000AF7860054A7B681360054BCE
:10133C0000221A6000BF0C37BD4680BC704700BF4E
:10134C0094000020A400002080B483B000AF78602B
:10135C00054A7B681360054B00221A6000BF0C37EE
:10136C00BD4680BC704700BF98000020A80000203C
:10137C0080B485B000AF154B9B69144A43F0010350
:10138C009361124B9B6903F00103BB60BB680F4B6D
:10139C00DB690E4A43F08053D3610C4BDB6903F0DD
:1013AC0080537B607B680A4B5B68FB60FB6823F0B7
:1013BC00E063FB60FB6843F08063FB60044AFB68FE
:1013CC00536000BF1437BD4680BC7047001002400C
:1013DC000000014080B584B000AF78607B681B686A
:1013EC00B3F1804F13D10C4BDB690B4A43F0010373
:1013FC00D361094BDB6903F00103FB60FB6800223E
:10140C0000211C2000F0A1F91C2000F0BAF900BF4B
:10141C001037BD4680BD00BF0010024080B400AF45
:10142C00FEE780B400AFFEE780B400AFFEE780B407
:10143C0000AFFEE780B400AFFEE780B400AF00BFA2
:10144C00BD4680BC704780B400AF00BFBD4680BCB9
:10145C00704780B400AF00BFBD4680BC704780B5FC
:10146C0000AF00F07FF800BF80BD000080B500AF7A
:10147C00024800F0DBFF00BF80BD00BFAC000020C5
:10148C0080B400AF00BFBD4680BC7047FFF7F8FFCB
:10149C000B480C490C4A002302E0D458C4500433C6
:1014AC00C4188C42F9D3094A094C002301E013609B
:1014BC000432A242FBD301F005FBFFF77FFD70471E
:1014CC00000000205C000020842B00085C00002041
:1014DC00F8000020FEE7000080B500AF084B1B6849
:1014EC00074A43F010031360032000F023F90F2088
:1014FC0000F008F8FFF73CFF0023184680BD00BF42
:10150C000020024080B582B000AF7860124B1A68A0
:10151C00124B1B7819464FF47A73B3FBF1F3B2FB01
:10152C00F3F3184600F03BF90346002B01D00123DE
:10153C000EE07B680F2B0AD8002279684FF0FF3041
:10154C0000F003F9064A7B681360002300E00123D6
:10155C0018460837BD4680BD5000002058000020BA
:10156C005400002080B400AF054B1B781A46054B85
:10157C001B681344034A136000BFBD4680BC704710
:10158C0058000020F400002080B400AF024B1B6810
:10159C001846BD4680BC7047F400002080B485B06E
:1015AC0000AF78607B6803F00703FB600C4BDB68D3
:1015BC00BB60BA684FF6FF031340BB60FB681A02AE
:1015CC00BB68134343F0BF6343F40033BB60044A6E
:1015DC00BB68D36000BF1437BD4680BC704700BFEA
:1015EC0000ED00E080B400AF044BDB681B0A03F095
:1015FC0007031846BD4680BC704700BF00ED00E0F5
:10160C0080B483B000AF0346FB7197F90730002B11
:10161C000BDBFB7903F01F02064997F907305B09D6
:10162C00012000FA02F241F8232000BF0C37BD461E
:10163C0080BC704700E100E080B483B000AF03468B
:10164C003960FB7197F90730002B0ADB3B68DAB283
:10165C000C4997F907301201D2B20B4483F80023DE
:10166C000AE03B68DAB20849FB7903F00F03043B4C
:10167C001201D2B20B441A7600BF0C37BD4680BCA7
:10168C00704700BF00E100E000ED00E080B489B0DD
:10169C0000AFF860B9607A60FB6803F00703FB6188
:1016AC00FB69C3F10703042B28BF0423BB61FB694F
:1016BC000433062B02D9FB69033B00E000237B615A
:1016CC004FF0FF32BB6902FA03F3DA43BB681A40EE
:1016DC007B699A404FF0FF317B6901FA03F3D943E0
:1016EC007B680B40134318462437BD4680BC7047BB
:1016FC0080B582B000AF78607B68013BB3F1807F2E
:10170C0001D301230FE00A4A7B68013B53600F2190
:10171C004FF0FF30FFF790FF054B00229A60044B0F
:10172C0007221A60002318460837BD4680BD00BF4B
:10173C0010E000E080B582B000AF78607868FFF709
:10174C002DFF00BF0837BD4680BD80B586B000AF09
:10175C000346B9607A60FB7300237B61FFF742FF9D
:10176C0078617A68B9687869FFF790FF024697F953
:10177C000F3011461846FFF75FFF00BF1837BD4604
:10178C0080BD80B582B000AF0346FB7197F907307E
:10179C001846FFF735FF00BF0837BD4680BD80B542
:1017AC0082B000AF78607868FFF7A2FF0346184656
:1017BC000837BD4680BD000080B48BB000AF7860A8
:1017CC00396000237B6200233B6248E101227B6A83
:1017DC0002FA03F3FB613B681B68FA691340BB61B7
:1017EC00BA69FB699A4240F037813B685B68A34A4F
:1017FC0093425ED0A14A934275D8A14A934258D0E5
:10180C009F4A93426FD89F4A934252D09D4A93422B
:10181C0069D89D4A93424CD09B4A934263D89B4AC9
:10182C00934246D0994A93425DD8122B2AD8122B58
:10183C0059D801A252F823F0BF18000899180008D3
:10184C00AB180008ED180008F3180008F31800088E
:10185C00F3180008F3180008F3180008F318000830
:10186C00F3180008F3180008F3180008F318000820
:10187C00F3180008F3180008F3180008A118000862
:10188C00B5180008824A934213D02CE03B68DB6801
:10189C003B6229E03B68DB6804333B6224E03B6835
:1018AC00DB6808333B621FE03B68DB680C333B6250
:1018BC001AE03B689B68002B02D104233B6213E0C7
:1018CC003B689B68012B05D108233B627B68FA6956
:1018DC001A6109E008233B627B68FA695A6103E0EC
:1018EC0000233B6200E000BFBB69FF2B01D87B6883
:1018FC0001E07B6804337B61BB69FF2B02D87B6AF8
:10190C009B0002E07B6A083B9B003B617B691A6889
:10191C000F213B6901FA03F3DB431A40396A3B6937
:10192C0001FA03F31A437B691A603B685B6803F0A6
:10193C008053002B00F09080564B9B69554A43F026
:10194C0001039361534B9B6903F00103BB60BB68BC
:10195C00514A7B6A9B08023352F82330FB607B6A46
:10196C0003F003039B000F2202FA03F3DB43FA6834
:10197C001340FB607B68494A93420DD07B68484A10
:10198C00934207D07B68474A934201D1022304E07B
:10199C00032302E0012300E000237A6A02F0030231
:1019AC0092009340FA681343FB603B497B6A9B08A7
:1019BC000233FA6841F823203B685B6803F4801318
:1019CC00002B06D0384B9A683749BB6913438B60A0
:1019DC0006E0354B9A68BB69DB43334913408B6097
:1019EC003B685B6803F40013002B06D02E4BDA68BF
:1019FC002D49BB691343CB6006E02B4BDA68BB69FE
:101A0C00DB4329491340CB603B685B6803F400332C
:101A1C00002B06D0244B5A682349BB6913434B60F7
:101A2C0006E0214B5A68BB69DB431F4913404B60EE
:101A3C003B685B6803F48033002B06D01A4B1A68A2
:101A4C001949BB6913430B6006E0174B1A68BB6955
:101A5C00DB43154913400B607B6A01337B623B68A7
:101A6C001A687B6A22FA03F3002B7FF4AFAE00BF37
:101A7C0000BF2C37BD4680BC704700BF0000321041
:101A8C000000311000002210000021100000121084
:101A9C00000011100010024000000140000801403D
:101AAC00000C0140001001400004014080B485B0DE
:101ABC0000AF78600B467B807B689A687B8813400C
:101ACC00002B02D00123FB7301E00023FB73FB7B93
:101ADC0018461437BD4680BC704780B483B000AF45
:101AEC0078600B467B8013467B707B78002B03D091
:101AFC007A887B681A6103E07B881A047B681A6118
:101B0C0000BF0C37BD4680BC704780B485B000AFB9
:101B1C0078600B467B807B68DB68FB607A88FB68AF
:101B2C0013401A04FB68D9437B880B401A437B682B
:101B3C001A6100BF1437BD4680BC704780B586B0B3
:101B4C0000AF78607B68002B01D101236CE27B68CD
:101B5C001B6803F00103002B00F08780924B5B683D
:101B6C0003F00C03042B0CD08F4B5B6803F00C03BD
:101B7C00082B12D18C4B5B6803F48033B3F5803F98
:101B8C000BD1894B1B6803F40033002B6CD07B68A2
:101B9C005B68002B68D1012346E27B685B68B3F578
:101BAC00803F06D1804B1B687F4A43F4803313601F
:101BBC002EE07B685B68002B0CD17B4B1B687A4A50
:101BCC0023F480331360784B1B68774A23F480230B
:101BDC0013601DE07B685B68B3F5A02F0CD1724BD2
:101BEC001B68714A43F4802313606F4B1B686E4A69
:101BFC0043F4803313600BE06B4B1B686A4A23F48D
:101C0C0080331360684B1B68674A23F4802313608E
:101C1C007B685B68002B13D0FFF7B6FC386108E0DB
:101C2C00FFF7B2FC02463B69D31A642B01D903239C
:101C3C00FAE15D4B1B6803F40033002BF0D014E089
:101C4C00FFF7A2FC386108E0FFF79EFC02463B69F7
:101C5C00D31A642B01D90323E6E1534B1B6803F41D
:101C6C000033002BF0D100E000BF7B681B6803F051
:101C7C000203002B63D04C4B5B6803F00C03002B6E
:101C8C000BD0494B5B6803F00C03082B1CD1464B63
:101C9C005B6803F48033002B16D1434B1B6803F0B5
:101CAC000203002B05D07B681B69012B01D001239B
:101CBC00BAE13D4B1B6823F0F8027B685B69DB00E3
:101CCC00394913430B603AE07B681B69002B20D029
:101CDC00364B01221A60FFF757FC386108E0FFF71A
:101CEC0053FC02463B69D31A022B01D903239BE117
:101CFC002D4B1B6803F00203002BF0D02A4B1B6802
:101D0C0023F0F8027B685B69DB00274913430B6007
:101D1C0015E0264B00221A60FFF736FC386108E00C
:101D2C00FFF732FC02463B69D31A022B01D903237D
:101D3C007AE11D4B1B6803F00203002BF0D17B688A
:101D4C001B6803F00803002B3AD07B689B69002BBF
:101D5C0019D0174B01221A60FFF716FC386108E006
:101D6C00FFF712FC02463B69D31A022B01D903235D
:101D7C005AE10D4B5B6A03F00203002BF0D00120FB
:101D8C0000F09AFA1CE00A4B00221A60FFF7FCFBE9
:101D9C0038610FE0FFF7F8FB02463B69D31A022BC0
:101DAC0008D9032340E100BF00100240000042426A
:101DBC00800442429E4B5B6A03F00203002BE9D184
:101DCC007B681B6803F00403002B00F0A680002343
:101DDC00FB75974BDB6903F08053002B0DD1944BB3
:101DEC00DB69934A43F08053D361914BDB6903F079
:101DFC008053BB60BB680123FB758E4B1B6803F4DF
:101E0C008073002B18D18B4B1B688A4A43F4807368
:101E1C001360FFF7B9FB386108E0FFF7B5FB02462A
:101E2C003B69D31A642B01D90323FDE0814B1B685A
:101E3C0003F48073002BF0D07B68DB68012B06D198
:101E4C007B4B1B6A7A4A43F0010313622DE07B68DB
:101E5C00DB68002B0CD1764B1B6A754A23F001030F
:101E6C001362734B1B6A724A23F0040313621CE067
:101E7C007B68DB68052B0CD16D4B1B6A6C4A43F0FD
:101E8C00040313626A4B1B6A694A43F00103136231
:101E9C000BE0674B1B6A664A23F001031362644B29
:101EAC001B6A634A23F0040313627B68DB68002B14
:101EBC0015D0FFF769FB38610AE0FFF765FB0246B6
:101ECC003B69D31A41F28832934201D90323ABE028
:101EDC00574B1B6A03F00203002BEED014E0FFF704
:101EEC0053FB38610AE0FFF74FFB02463B69D31AFC
:101EFC0041F28832934201D9032395E04C4B1B6A83
:101F0C0003F00203002BEED1FB7D012B05D1484BD6
:101F1C00DB69474A23F08053D3617B68DB69002B74
:101F2C0000F08180424B5B6803F00C03082B61D0FE
:101F3C007B68DB69022B46D13F4B00221A60FFF70E
:101F4C0023FB386108E0FFF71FFB02463B69D31AFD
:101F5C00022B01D9032367E0354B1B6803F0007398
:101F6C00002BF0D17B681B6AB3F5803F08D1304B56
:101F7C005B6823F400327B689B682D4913434B60EC
:101F8C002B4B5B6823F474127B68196A7B685B6A61
:101F9C000B43274913434B60274B01221A60FFF771
:101FAC00F3FA386108E0FFF7EFFA02463B69D31AFF
:101FBC00022B01D9032337E01D4B1B6803F0007380
:101FCC00002BF0D02FE01C4B00221A60FFF7DCFA3C
:101FDC00386108E0FFF7D8FA02463B69D31A022BA6
:101FEC0001D9032320E0124B1B6803F00073002B74
:101FFC00F0D118E07B68DB69012B01D1012313E0E0
:10200C000B4B5B68FB60FB6803F480327B681B6ADC
:10201C009A4206D1FB6803F470127B685B6A9A42A1
:10202C0001D0012300E0002318461837BD4680BDBF
:10203C0000100240007000406000424280B584B045
:10204C0000AF786039607B68002B01D10123D0E0B0
:10205C006A4B1B6803F007033A689A4210D9674B26
:10206C001B6823F0070265493B6813430B60634B05
:10207C001B6803F007033A689A4201D00123B8E0C9
:10208C007B681B6803F00203002B20D07B681B6865
:10209C0003F00403002B05D0594B5B68584A43F4FA
:1020AC00E06353607B681B6803F00803002B05D0CA
:1020BC00534B5B68524A43F460535360504B5B681C
:1020CC0023F0F0027B689B684D4913434B607B689F
:1020DC001B6803F00103002B40D07B685B68012B6D
:1020EC0007D1474B1B6803F40033002B15D1012398
:1020FC007FE07B685B68022B07D1414B1B6803F0C8
:10210C000073002B09D1012373E03D4B1B6803F0D6
:10211C000203002B01D101236BE0394B5B6823F0E8
:10212C0003027B685B68364913434B60FFF72CFA5C
:10213C00F8600AE0FFF728FA0246FB68D31A41F26E
:10214C008832934201D9032353E02D4B5B6803F093
:10215C000C027B685B689B009A42EBD1274B1B6897
:10216C0003F007033A689A4210D2244B1B6823F001
:10217C00070222493B6813430B60204B1B6803F09A
:10218C0007033A689A4201D0012332E07B681B684E
:10219C0003F00403002B08D0194B5B6823F4E062B6
:1021AC007B68DB68164913434B607B681B6803F044
:1021BC000803002B09D0124B5B6823F460527B6838
:1021CC001B69DB000E4913434B6000F021F80246FB
:1021DC000B4B5B681B0903F00F030A49CB5C22FA1B
:1021EC0003F3094A1360094B1B681846FFF78AF979
:1021FC00002318461037BD4680BD00BF00200240AA
:10220C0000100240582B0008500000205400002001
:10221C0080B487B000AF0023FB600023BB600023B9
:10222C007B6100237B6000233B611E4B5B68FB6082
:10223C00FB6803F00C03042B02D0082B03D027E01F
:10224C00194B3B6127E0FB689B0C03F00F03174A0B
:10225C00D35C7B60FB6803F48033002B10D0114BF4
:10226C005B685B0C03F00103114AD35CBB607B68B9
:10227C000D4A02FB03F2BB68B2FBF3F37B6104E093
:10228C007B680C4A02FB03F37B617B693B6102E0D8
:10229C00054B3B6100BF3B6918461C37BD4680BCF3
:1022AC00704700BF0010024000127A00682B000833
:1022BC00782B000800093D0080B485B000AF786031
:1022CC000A4B1B680A4AA2FB03235B0A7A6802FBCF
:1022DC0003F3FB6000BFFB685A1EFA60002BF9D1B8
:1022EC0000BF00BF1437BD4680BC704750000020B3
:1022FC00D34D621080B582B000AF78607B68002B44
:10230C0001D1012341E07B6893F83D30DBB2002B17
:10231C0006D17B68002283F83C207868FFF75AF8D6
:10232C007B68022283F83D207B681A687B68043343
:10233C001946104600F06EFA7B68012283F846209D
:10234C007B68012283F83E207B68012283F83F20C2
:10235C007B68012283F840207B68012283F84120AE
:10236C007B68012283F842207B68012283F843209A
:10237C007B68012283F844207B68012283F8452086
:10238C007B68012283F83D20002318460837BD46A0
:10239C0080BD000080B485B000AF78607B6893F896
:1023AC003D30DBB2012B01D0012335E07B680222EA
:1023BC0083F83D207B681B68DA687B681B6842F0F9
:1023CC000102DA607B681B68164A934209D07B686D
:1023DC001B68B3F1804F04D07B681B68124A934290
:1023EC0011D17B681B689B6803F00703FB60FB68DB
:1023FC00062B10D07B681B681A687B681B6842F040
:10240C0001021A6007E07B681B681A687B681B680E
:10241C0042F001021A60002318461437BD4680BCF6
:10242C00704700BF002C01400004004080B582B012
:10243C0000AF78607B681B681B6903F00203022BFA
:10244C0022D17B681B68DB6803F00203022B1BD1D3
:10245C007B681B686FF002021A617B6801221A7795
:10246C007B681B689B6903F00303002B03D078681F
:10247C0000F0B4F905E0786800F0A7F9786800F08E
:10248C00B6F97B6800221A777B681B681B6903F01E
:10249C000403042B22D17B681B68DB6803F0040364
:1024AC00042B1BD17B681B686FF004021A617B68DC
:1024BC0002221A777B681B689B6903F44073002B1C
:1024CC0003D0786800F08AF905E0786800F07DF9AF
:1024DC00786800F08CF97B6800221A777B681B689F
:1024EC001B6903F00803082B22D17B681B68DB688F
:1024FC0003F00803082B1BD17B681B686FF00802E4
:10250C001A617B6804221A777B681B68DB6903F00D
:10251C000303002B03D0786800F060F905E07868BD
:10252C0000F053F9786800F062F97B6800221A77A2
:10253C007B681B681B6903F01003102B22D17B688E
:10254C001B68DB6803F01003102B1BD17B681B6826
:10255C006FF010021A617B6808221A777B681B687F
:10256C00DB6903F44073002B03D0786800F036F974
:10257C0005E0786800F029F9786800F038F97B6894
:10258C0000221A777B681B681B6903F00103012B7F
:10259C000ED17B681B68DB6803F00103012B07D1AC
:1025AC007B681B686FF001021A617868FEF726FEE3
:1025BC007B681B681B6903F08003802B0ED17B6842
:1025CC001B68DB6803F08003802B07D17B681B68DA
:1025DC006FF080021A61786800F06BFA7B681B68F8
:1025EC001B6903F04003402B0ED17B681B68DB6832
:1025FC0003F04003402B07D17B681B686FF040024F
:10260C001A61786800F0FCF87B681B681B6903F0A2
:10261C002003202B0ED17B681B68DB6803F02003A2
:10262C00202B07D17B681B686FF020021A61786839
:10263C0000F036FA00BF0837BD4680BD80B584B0C7
:10264C0000AF786039600023FB737B6893F83C30F3
:10265C00012B01D10223B4E07B68012283F83C20DA
:10266C007B68022283F83D207B681B689B68BB60FB
:10267C00BB6823F07703BB60BB6823F47F43BB606C
:10268C007B681B68BA689A603B681B68B3F5005F8F
:10269C003ED0B3F5005F00F28780B3F5805F00F0A9
:1026AC008680B3F5805F7FD8702B1AD0702B7BD8C7
:1026BC00602B50D0602B77D8502B3CD0502B73D83C
:1026CC00402B58D0402B6FD8302B64D0302B6BD88C
:1026DC00202B60D0202B67D8002B5CD0102B5AD02D
:1026EC0062E07B6818683B6899683B685A683B688D
:1026FC00DB6800F05EF97B681B689B68BB60BB689D
:10270C0043F07703BB607B681B68BA689A604FE044
:10271C007B6818683B6899683B685A683B68DB685B
:10272C0000F047F97B681B689A687B681B6842F469
:10273C0080429A603CE07B6818683B6859683B684B
:10274C00DB681A4600F0BEF87B681B6850211846FF
:10275C0000F015F92CE07B6818683B6859683B68F9
:10276C00DB681A4600F0DCF87B681B6860211846B1
:10277C0000F005F91CE07B6818683B6859683B68F9
:10278C00DB681A4600F09EF87B681B6840211846EF
:10279C0000F0F5F80CE07B681A683B681B6819467A
:1027AC00104600F0ECF803E00123FB7300E000BFDF
:1027BC007B68012283F83D207B68002283F83C2053
:1027CC00FB7B18461037BD4680BD80B483B000AF8C
:1027DC00786000BF0C37BD4680BC704780B483B0B6
:1027EC0000AF786000BF0C37BD4680BC704780B42A
:1027FC0083B000AF786000BF0C37BD4680BC70471B
:10280C0080B483B000AF786000BF0C37BD4680BC8D
:10281C007047000080B485B000AF786039607B6889
:10282C001B68FB607B68254A934207D07B68B3F139
:10283C00804F03D07B68224A934208D1FB6823F077
:10284C007003FB603B685B68FA681343FB607B6852
:10285C001A4A934207D07B68B3F1804F03D07B6850
:10286C00174A934208D1FB6823F44073FB603B6822
:10287C00DB68FA681343FB60FB6823F080023B685B
:10288C005B691343FB607B68FA681A603B689A6863
:10289C007B68DA623B681A687B689A627B68074AD5
:1028AC00934203D13B681A697B681A637B680122E7
:1028BC005A6100BF1437BD4680BC7047002C0140E4
:1028CC000004004080B487B000AFF860B9607A6053
:1028DC00FB681B6A7B61FB681B6A23F00102FB68C7
:1028EC001A62FB689B693B613B6923F0F0033B6117
:1028FC007B681B013A6913433B617B6923F00A0334
:10290C007B617A69BB6813437B61FB683A699A61A6
:10291C00FB687A691A6200BF1C37BD4680BC7047E1
:10292C0080B487B000AFF860B9607A60FB681B6A4E
:10293C007B61FB681B6A23F01002FB681A62FB6860
:10294C009B693B613B6923F470433B617B681B03D0
:10295C003A6913433B617B6923F0A0037B61BB683D
:10296C001B017A6913437B61FB683A699A61FB68C6
:10297C007A691A6200BF1C37BD4680BC704780B4B0
:10298C0085B000AF786039607B689B68FB60FB6842
:10299C0023F07003FB603A68FB68134343F00703B2
:1029AC00FB607B68FA689A6000BF1437BD4680BC38
:1029BC00704780B487B000AFF860B9607A603B6054
:1029CC00FB689B687B617B6923F47F437B613B687D
:1029DC001A027B681A43BB6813437A6913437B6101
:1029EC00FB687A699A6000BF1C37BD4680BC704793
:1029FC0080B485B000AF786039607B6893F83C3068
:102A0C00012B01D1022341E07B68012283F83C2099
:102A1C007B68022283F83D207B681B685B68FB6047
:102A2C007B681B689B68BB60FB6823F07003FB60D2
:102A3C003B681B68FA681343FB607B681B68FA6889
:102A4C005A607B681B68144A934209D07B681B68E8
:102A5C00B3F1804F04D07B681B68104A93420CD1B1
:102A6C00BB6823F08003BB603B685B68BA681343A8
:102A7C00BB607B681B68BA689A607B68012283F82C
:102A8C003D207B68002283F83C2000231846143735
:102A9C00BD4680BC704700BF002C014000040040C4
:102AAC0080B483B000AF786000BF0C37BD4680BCEB
:102ABC00704780B483B000AF786000BF0C37BD4660
:102ACC0080BC704770B500260C4D0D4C641BA410D7
:102ADC00A64209D100F022F800260A4D0A4C641BCC
:102AEC00A410A64205D170BD55F8043B9847013699
:102AFC00EEE755F8043B98470136F2E77C2B0008CB
:102B0C007C2B00087C2B0008802B00080346024419
:102B1C00934200D1704703F8011BF9E7F8B500BFE9
:102B2C00F8BC08BC9E467047F8B500BFF8BC08BCA2
:042B3C009E467047FA
:102B40003F0006005B004F0066006D007D0007003F
:102B50007F006F001900000000000000000000006E
:102B60000102030406070809020304050607080911
:0C2B70000A0B0C0D0E0F101001020000EB
:042B7C00310100081B
:042B80000D0100083B
:102B8400010000000100000001000000010000003D
:102B9400010000000100000001000000010000002D
:102BA400010000000100000001000000010000001D
:102BB400C800000001000000020000000300000043
:102BC40004000000050000000300000002000000F3
:0C2BD4000024F4001000000001000000CC
:040000050800149942
:00000001FF
