:020000040800F2
:100000000028002049130008D9120008DF12000858
:10001000E5120008EB120008F112000800000000D1
:10002000000000000000000000000000F7120008BF
:1000300003130008000000000F1300081B13000842
:100040009113000891130008911300089113000800
:1000500091130008911300089113000891130008F0
:1000600091130008911300089113000891130008E0
:1000700091130008911300089113000891130008D0
:1000800091130008911300089113000891130008C0
:1000900091130008911300089113000891130008B0
:1000A00091130008911300089113000891130008A0
:1000B00029130008911300080000000091130008A4
:1000C00091130008000000000000000091130008D8
:1000D00000000000911300089113000800000000C8
:1000E000911300089113000891130008000000000C
:1000F0000000000000000000000000000000000000
:0C01000000000000000000005FF808F1A3
:10010C0010B5054C237833B9044B13B10448AFF345
:10011C0000800123237010BD5C0000200000000053
:10012C00D829000808B5034B1BB103490348AFF3AA
:10013C00008008BD0000000060000020D8290008E5
:10014C0080B500AF8B4B1B682C2B54D02C2B00F3A1
:10015C0007812A2B03D02B2B00F0988000E1864BD3
:10016C001B68012B0AD1192001F046F82021834885
:10017C0001F023FC0421814801F01FFC804B1B681B
:10018C00012B13D17F4B1B68184601F00DF87E4BE9
:10019C001B68032B02DD7C4B00221A607A4B1B6818
:1001AC005A1C79490A60184600F0C4FD00F0C0FBE7
:1001BC000346012B0CD100F027FE744B1B68013356
:1001CC00724A1360714B1B680121184600F04AFDFE
:1001DC0000F0CCFB0346012B40F0C48000F014FE71
:1001EC00644B22221A60192001F006F8022100202B
:1001FC0000F038FDB6E0604B1B68012B0AD11920CA
:10020C0000F0FAFF80215D4801F0D7FB10215B481C
:10021C0001F0D3FB5A4B1B68012B13D1594B1B68B4
:10022C00184600F0C1FF584B1B68032B02DD564BE0
:10023C0000221A60544B1B685A1C53490A6018461A
:10024C0000F078FD00F074FB0346012B0CD100F09C
:10025C00DBFD4F4B1B6801334D4A13604C4B1B6845
:10026C000221184600F0FEFC00F080FB0346012B37
:10027C007AD100F0C9FD3F4B21221A60192000F001
:10028C00BBFF0321002000F0EDFC6DE03A4B1B6836
:10029C00012B0AD1192000F0AFFF4021374801F0A3
:1002AC008CFB0821354801F088FB354B1B68012B72
:1002BC0013D1344B1B68184600F076FF324B1B6889
:1002CC00032B02DD304B00221A602F4B1B685A1C8B
:1002DC002D490A60184600F02DFD00F029FB03465D
:1002EC00012B0CD100F090FD2A4B1B680133294ADD
:1002FC001360284B1B680321184600F0B3FC00F078
:10030C0035FB0346012B31D1224B1A68204B1B685D
:10031C001A441E4B1B689A4203D1164B15221A60C5
:10032C0024E01C4B1A681A4B1B681A44174B1B68A9
:10033C009A420ADA154B1A68154B1B68D31A154AE0
:10034C0013600C4B15221A6010E0124B1A68104BFC
:10035C001B6813440D4A1360064B15221A6005E006
:10036C0000BF04E000BF02E000BF00E000BF00BF20
:10037C0080BD00BF88000020A800002000080140BC
:10038C00A0000020042A0008840000204400002063
:10039C004C0000204800002080B500AF9E4B1B682D
:1003AC001F3B032B00F22E8101A252F823F000BF59
:1003BC00CD030008F7030008370500089704000870
:1003CC0000F022FD944B20221A60192000F014FF3B
:1003DC000121002000F046FC904B1B68184600F0F1
:1003EC00E3FE8F4B01221A6013E18E4B1B68012B2D
:1003FC000AD1192000F000FF20218B4801F0DDFA12
:10040C000421894801F0D9FA854B1B68012B13D1C3
:10041C00824B1B68184600F0C7FE844B1B68032BED
:10042C0002DD824B00221A60804B1B685A1C7F49EC
:10043C000A60184600F07EFC00F05CFA0346012BC3
:10044C000BD100F0E1FC744B22221A60192000F051
:10045C00D3FE0221002000F005FC00F069FA0346EF
:10046C00012B40F0D18000F0CFFC6B4B2A221A609C
:10047C00192000F0C1FE6E4B01221A606C4B1B68F8
:10048C000121184600F0EEFBBEE0664B1B68012B09
:10049C000AD1192000F0B0FE8021634801F08DFADA
:1004AC001021614801F089FA5D4B1B68012B13D1B7
:1004BC005A4B1B68184600F077FE5C4B1B68032BED
:1004CC0002DD5A4B00221A60584B1B685A1C5749C4
:1004DC000A60184600F02EFC00F00CFA0346012BC3
:1004EC000BD100F091FC4C4B21221A60192000F02A
:1004FC0083FE0321002000F0B5FB00F019FA03463F
:10050C00012B40F0838000F07FFC434B2C221A60BF
:10051C00192000F071FE474B01221A60454B1B68F5
:10052C000221184600F09EFB70E03E4B1B68012B2D
:10053C000AD1192000F060FE40213B4801F03DFA41
:10054C000821394801F039FA354B1B68012B13D1BE
:10055C00324B1B68184600F027FE344B1B68032BEC
:10056C0002DD324B00221A60304B1B685A1C2F499B
:10057C000A60184600F0DEFB00F0BCF90346012BC4
:10058C002CD100F041FC2C4B1A682A4B1B681A44E6
:10059C00274B1B689A4203D11F4B15221A601DE092
:1005AC00254B1A68234B1B681A44214B1B689A4233
:1005BC000ADA1F4B1A681F4B1B68D31A1E4A1360AA
:1005CC00154B15221A6009E01B4B1A68194B1B6856
:1005DC001344174A1360104B15221A6000F0A8F947
:1005EC000346012B14D100F00FFC0B4B2B221A608D
:1005FC00114B01221A60104B1B680321184600F0A6
:10060C0031FB05E000BF04E000BF02E000BF00E0EA
:10061C0000BF00BF80BD00BF88000020042A000876
:10062C00A0000020A8000020000801408400002049
:10063C00440000204C0000204800002080B500AF92
:10064C00A34B1B68153B042B00F2368101A252F818
:10065C0023F000BF75060008B10600083707000834
:10066C00BD0700084108000800F0CEFB984B16228D
:10067C001A60984B1B68184600F02AFD964B1B68B5
:10068C00944A12681146184600F0ECFA934B1B681A
:10069C00184600F089FD924B01221A60642000F08C
:1006AC0097FD12E100F05AFA00F0B0FA8C4B1B687F
:1006BC00012B13D1894B1B68184600F075FD894B33
:1006CC001B68032B02DD874B00221A60854B1B68CD
:1006DC005A1C84490A60184600F02CFB824B1B689C
:1006EC00012B04D100F0FAFA642000F071FD7F4B6D
:1006FC001B68012B0FD1764B17221A607C4B1B68A1
:10070C00184600F0E5FC7A4B1B68794A12681146D2
:10071C00184600F0A7FA00F0EDF80346012B40F064
:10072C00CD806B4B1F221A60C8E000F017FA00F066
:10073C0083FA6B4B1B68012B13D16A4B1B68032B81
:10074C0002DD684B00221A60664B1B685A1C654917
:10075C000A60184600F0EEFA604B1B68184600F071
:10076C0023FD614B1B68012B04D100F0B7FA642008
:10077C0000F02EFD5D4B1B68012B0FD1544B182242
:10078C001A60544B1B68184600F0A2FC514B1B68B6
:10079C00514A12681146184600F064FA00F0AAF8A3
:1007AC000346012B40F08C80494B1F221A6087E0D6
:1007BC0000F0EAF900F014FA494B1B68012B13D135
:1007CC00484B1B68032B02DD464B00221A60454B3D
:1007DC001B685A1C43490A60184600F0ABFA3F4BA1
:1007EC001B68184600F0E0FC3F4B1B68012B04D142
:1007FC0000F074FA642000F0EBFC3C4B1B68012BFE
:10080C000FD1334B19221A60394B1B68184600F074
:10081C005FFC374B1B68364A12681146184600F0CD
:10082C0021FA00F067F80346012B4BD1284B1F220D
:10083C001A6047E000F0BEF900F0D2F9284B1B68B3
:10084C00012B13D1274B1B68032B02DD254B0022F8
:10085C001A60244B1B685A1C22490A60184600F087
:10086C0069FA1E4B1B68184600F09EFC1E4B1B6859
:10087C00012B04D100F032FA642000F0A9FC1B4BD0
:10088C001B68012B0FD1124B16221A60114B1B68DF
:10089C00184600F01DFC104B1B680E4A12681146DE
:1008AC00184600F0DFF900F025F80346012B0BD1B8
:1008BC00074B1F221A6007E000BF06E000BF04E0F0
:1008CC0000BF02E000BF00E000BF00BF80BD00BF62
:1008DC00880000204800002044000020042A000862
:1008EC00A000002084000020A40000209C00002018
:1008FC004C00002080B400AF064B1B68012B04D1C8
:10090C00044B00221A60012300E000231846BD4668
:10091C0080BC70477800002080B400AF034B0122EC
:10092C001A6000BFBD4680BC704700BF7800002035
:10093C0080B400AF064B1B68012B04D1044B002282
:10094C001A60012300E000231846BD4680BC7047A6
:10095C007C00002080B400AF034B01221A6000BF62
:10096C00BD4680BC704700BF7C00002080B400AF47
:10097C00064B1B68012B04D1044B00221A60012387
:10098C0000E000231846BD4680BC70478000002064
:10099C0080B400AF034B01221A6000BFBD4680BC7F
:1009AC00704700BF8000002080B500AF5C4B1B6817
:1009BC005C4A13605C4B1B68594A13604FF400513E
:1009CC005A4800F0CBFF03461A46574B1A60554B5A
:1009DC001A68534B1B689A4225D1514B1A68524BDB
:1009EC001B689A421FD1524B1A684F4B1B689A4294
:1009FC000DD04D4B1B684E4A13604B4B1B68002BA4
:100A0C0011D1FFF789FF4B4BC8221A600BE0494B01
:100A1C001B68013B474A1360464B1B68002B02D1F5
:100A2C00434B01221A60444B1B68444A1360444BED
:100A3C001B68414A13604FF48041424800F08EFF1E
:100A4C0003461A463E4B1A603C4B1A683A4B1B68DD
:100A5C009A4225D1384B1A68394B1B689A421FD1E0
:100A6C00394B1A68364B1B689A420DD0344B1B68B5
:100A7C00354A1360324B1B68002B11D1FFF76AFF0C
:100A8C002C4BC8221A600BE02A4B1B68013B294AED
:100A9C001360284B1B68002B02D12B4B01221A60D0
:100AAC002A4B1B682A4A13602A4B1B68274A13607F
:100ABC004FF40041234800F051FF03461A46254BE2
:100ACC001A60234B1A68214B1B689A4225D11F4B85
:100ADC001A68204B1B689A421FD11E4B1A681E4B7A
:100AEC001B689A420DD01B4B1B681B4A1360194B99
:100AFC001B68002B11D1FFF74BFF0E4BC8221A605D
:100B0C000BE00C4B1B68013B0A4A1360094B1B683A
:100B1C00002B02D1104B01221A6000BF80BD00BF18
:100B2C0004000020000000200800002000100140FC
:100B3C000C000020300000201400002010000020C9
:100B4C0018000020000801401C0000202400002098
:100B5C0020000020280000202C00002080B500AFD1
:100B6C0000222021074800F010FF012240210548F7
:100B7C0000F00BFF01228021024800F006FF00BFAD
:100B8C0080BD00BF0008014080B500AF01222021CC
:100B9C00074800F0FAFE00224021054800F0F5FE5F
:100BAC0001228021024800F0F0FE00BF80BD00BF92
:100BBC000008014080B500AF01222021074800F059
:100BCC00E4FE01224021054800F0DFFE00228021D6
:100BDC00024800F0DAFE00BF80BD00BF00080140F3
:100BEC0080B500AF00220421074800F0CEFE0122A0
:100BFC000821054800F0C9FE01221021024800F02E
:100C0C00C4FE00BF80BD00BF0008014080B500AF2E
:100C1C0001220421074800F0B8FE002208210548F3
:100C2C0000F0B3FE01221021024800F0AEFE00BF1E
:100C3C0080BD00BF0008014080B500AF0122042137
:100C4C00074800F0A2FE01220821054800F09DFE95
:100C5C0000221021024800F098FE00BF80BD00BFAA
:100C6C000008014080B483B000AF786039607B68C5
:100C7C00184A82FB03129210DB17D31A164A136020
:100C8C007968144B83FB01239A10CB17D21A1346A5
:100C9C009B0013445B00CA1A0F4B5A603B680D4A09
:100CAC0082FB03129210DB17D31A0B4A936039683C
:100CBC00084B83FB01239A10CB17D21A13469B00C7
:100CCC0013445B00CA1A044BDA6000BF0C37BD46F4
:100CDC0080BC7047676666663400002080B400AF45
:100CEC00134B5B68002B08DC114B1B68013B104A53
:100CFC0013600F4B09225A6004E00D4B5B68013BFB
:100D0C000B4A53600A4BDB68002B08DC084B9B68D2
:100D1C00013B074A9360064B0922DA6004E0044B5E
:100D2C00DB68013B024AD36000BFBD4680BC704704
:100D3C0034000020B0B588B000AF78602E4B07F1BE
:100D4C000C041D460FCD0FC42B6823602B4A7B6807
:100D5C0052F823305B0007F12002134433F8143CA3
:100D6C00DA43274BDA607B68032B3FD801A252F899
:100D7C0023F000BF910D0008AB0D0008C50D000855
:100D8C00DF0D000801224FF460611E4800F0FDFDEC
:100D9C0000224FF480711B4800F0F7FD27E0012280
:100DAC004FF45061174800F0F0FD00224FF4007131
:100DBC00144800F0EAFD1AE001224FF430611148AA
:100DCC0000F0E3FD00224FF480610E4800F0DDFDE1
:100DDC000DE001224FF4E0610A4800F0D6FD00223C
:100DEC004FF40061074800F0D0FD00E000BF00BFE9
:100DFC002037BD46B0BD00BFF029000834000020EC
:100E0C00000C01400008014080B500AF104B0022DF
:100E1C001A60012240F6FC710E4800F0B6FD01226A
:100E2C007F210D4800F0B1FD0C4B00221A600C4BD9
:100E3C0000221A600B4B00221A600B4B00221A6026
:100E4C00FFF758FDFFF774FDFFF790FD00BF80BD65
:100E5C008400002000080140000C01409C00002090
:100E6C00A0000020A4000020A800002080B500AF46
:100E7C0000F08AFA00F016F800F09CF800F04EF83A
:100E8C00064801F0DFF9064B15221A60FFF7D6FB76
:100E9C00FFF782FAFFF754F9F8E700BFAC00002027
:100EAC008800002080B590B000AF07F1180328220D
:100EBC000021184601F082FD3B1D00221A605A6089
:100ECC009A60DA601A610223BB610123BB621023B2
:100EDC00FB6200237B6307F11803184600F086FDC4
:100EEC000346002B01D000F0EDF80F237B600023AC
:100EFC00BB600023FB6000233B6100237B613B1D37
:100F0C000021184600F0F2FF0346002B01D000F040
:100F1C00D9F800BF4037BD4680BD000080B586B013
:100F2C0000AF07F1080300221A605A609A60DA6079
:100F3C003B4600221A605A601D4B4FF080421A60EB
:100F4C001B4B41F63F725A60194B00229A60184BAA
:100F5C000922DA60164B00221A61154B00229A61A5
:100F6C00134801F01FF90346002B01D000F0AAF83A
:100F7C004FF48053BB6007F1080319460C4801F08D
:100F8C00B5FA0346002B01D000F09CF800233B601F
:100F9C0000237B603B461946054801F081FC034663
:100FAC00002B01D000F08EF800BF1837BD4680BD75
:100FBC00AC00002080B588B000AF07F11003002210
:100FCC001A605A609A60DA60344B9B69334A43F07A
:100FDC0010039361314B9B6903F01003FB60FB68BA
:100FEC002E4B9B692D4A43F0040393612B4B9B6959
:100FFC0003F00403BB60BB68284B9B69274A43F092
:10100C0008039361254B9B6903F008037B607B68A5
:10101C00002240F6FC71224800F0B7FC00227F2130
:10102C00204800F0B2FC4FF400533B6100237B617D
:10103C000123BB6107F1100319461B4800F014FB98
:10104C0040F6FC733B6101237B610023BB610223EF
:10105C00FB6107F110031946114800F005FB7F23D3
:10106C003B6101237B610023BB610223FB6107F120
:10107C00100319460B4800F0F7FA4FF440433B615C
:10108C0000237B610123BB6107F11003194604485F
:10109C0000F0EAFA00BF2037BD4680BD00100240C8
:1010AC0000080140000C01400010014080B582B0E6
:1010BC0000AF786000F022F8FFF776FC00BF08372D
:1010CC00BD4680BD80B400AF72B600BFFEE7000025
:1010DC0080B483B000AF78607B68642202FB03F3BA
:1010EC00044A1360044B00221A6000BF0C37BD4643
:1010FC0080BC70478C0000209C00002080B400AFA6
:10110C00214B1B68002B0BDD1F4B1B68013B1E4A40
:10111C0013601D4B1B68002B02DC1C4B01221A6058
:10112C001B4B1B68002B0BDD194B1B68013B184A32
:10113C001360174B1B68002B02DC164B01221A6044
:10114C00154B1B68002B0BDD134B1B68013B124A24
:10115C001360114B1B68002B02DC104B01221A6030
:10116C000F4B1B68002B0BDD0D4B1B68013B0C4A16
:10117C0013600B4B1B68002B02DC0A4B01221A601C
:10118C0000BFBD4680BC70478C0000209C00002036
:10119C0090000020A000002094000020A40000205B
:1011AC0098000020A800002080B483B000AF7860C5
:1011BC00054A7B681360054B00221A6000BF0C3790
:1011CC00BD4680BC704700BF90000020A0000020EE
:1011DC0080B483B000AF7860054A7B681360054B20
:1011EC0000221A6000BF0C37BD4680BC704700BFA0
:1011FC0094000020A400002080B483B000AF78607D
:10120C00054A7B681360054B00221A6000BF0C373F
:10121C00BD4680BC704700BF98000020A80000208D
:10122C0080B485B000AF154B9B69144A43F00103A1
:10123C009361124B9B6903F00103BB60BB680F4BBE
:10124C00DB690E4A43F08053D3610C4BDB6903F02E
:10125C0080537B607B680A4B5B68FB60FB6823F008
:10126C00E063FB60FB6843F08063FB60044AFB684F
:10127C00536000BF1437BD4680BC7047001002405D
:10128C000000014080B584B000AF78607B681B68BB
:10129C00B3F1804F13D10C4BDB690B4A43F00103C4
:1012AC00D361094BDB6903F00103FB60FB6800228F
:1012BC0000211C2000F0A1F91C2000F0BAF900BF9D
:1012CC001037BD4680BD00BF0010024080B400AF97
:1012DC00FEE780B400AFFEE780B400AFFEE780B459
:1012EC0000AFFEE780B400AFFEE780B400AF00BFF4
:1012FC00BD4680BC704780B400AF00BFBD4680BC0B
:10130C00704780B400AF00BFBD4680BC704780B54D
:10131C0000AF00F07FF800BF80BD000080B500AFCB
:10132C00024800F0DBFF00BF80BD00BFAC00002016
:10133C0080B400AF00BFBD4680BC7047FFF7F8FF1C
:10134C000B480C490C4A002302E0D458C450043317
:10135C00C4188C42F9D3094A094C002301E01360EC
:10136C000432A242FBD301F005FBFFF77FFD70476F
:10137C00000000205C000020342A00085C000020E3
:10138C00F8000020FEE7000080B500AF084B1B689A
:10139C00074A43F010031360032000F023F90F20D9
:1013AC0000F008F8FFF73CFF0023184680BD00BF93
:1013BC000020024080B582B000AF7860124B1A68F2
:1013CC00124B1B7819464FF47A73B3FBF1F3B2FB53
:1013DC00F3F3184600F03BF90346002B01D0012330
:1013EC000EE07B680F2B0AD8002279684FF0FF3093
:1013FC0000F003F9064A7B681360002300E0012328
:10140C0018460837BD4680BD50000020580000200B
:10141C005400002080B400AF054B1B781A46054BD6
:10142C001B681344034A136000BFBD4680BC704761
:10143C0058000020F400002080B400AF024B1B6861
:10144C001846BD4680BC7047F400002080B485B0BF
:10145C0000AF78607B6803F00703FB600C4BDB6824
:10146C00BB60BA684FF6FF031340BB60FB681A02FF
:10147C00BB68134343F0BF6343F40033BB60044ABF
:10148C00BB68D36000BF1437BD4680BC704700BF3B
:10149C0000ED00E080B400AF044BDB681B0A03F0E6
:1014AC0007031846BD4680BC704700BF00ED00E046
:1014BC0080B483B000AF0346FB7197F90730002B63
:1014CC000BDBFB7903F01F02064997F907305B0928
:1014DC00012000FA02F241F8232000BF0C37BD4670
:1014EC0080BC704700E100E080B483B000AF0346DD
:1014FC003960FB7197F90730002B0ADB3B68DAB2D5
:10150C000C4997F907301201D2B20B4483F800232F
:10151C000AE03B68DAB20849FB7903F00F03043B9D
:10152C001201D2B20B441A7600BF0C37BD4680BCF8
:10153C00704700BF00E100E000ED00E080B489B02E
:10154C0000AFF860B9607A60FB6803F00703FB61D9
:10155C00FB69C3F10703042B28BF0423BB61FB69A0
:10156C000433062B02D9FB69033B00E000237B61AB
:10157C004FF0FF32BB6902FA03F3DA43BB681A403F
:10158C007B699A404FF0FF317B6901FA03F3D94331
:10159C007B680B40134318462437BD4680BC70470C
:1015AC0080B582B000AF78607B68013BB3F1807F7F
:1015BC0001D301230FE00A4A7B68013B53600F21E2
:1015CC004FF0FF30FFF790FF054B00229A60044B61
:1015DC0007221A60002318460837BD4680BD00BF9D
:1015EC0010E000E080B582B000AF78607868FFF75B
:1015FC002DFF00BF0837BD4680BD80B586B000AF5B
:10160C000346B9607A60FB7300237B61FFF742FFEE
:10161C0078617A68B9687869FFF790FF024697F9A4
:10162C000F3011461846FFF75FFF00BF1837BD4655
:10163C0080BD80B582B000AF0346FB7197F90730CF
:10164C001846FFF735FF00BF0837BD4680BD80B593
:10165C0082B000AF78607868FFF7A2FF03461846A7
:10166C000837BD4680BD000080B48BB000AF7860F9
:10167C00396000237B6200233B6248E101227B6AD4
:10168C0002FA03F3FB613B681B68FA691340BB6108
:10169C00BA69FB699A4240F037813B685B68A34AA0
:1016AC0093425ED0A14A934275D8A14A934258D036
:1016BC009F4A93426FD89F4A934252D09D4A93427D
:1016CC0069D89D4A93424CD09B4A934263D89B4A1B
:1016DC00934246D0994A93425DD8122B2AD8122BAA
:1016EC0059D801A252F823F06F17000849170008C7
:1016FC005B1700089D170008A3170008A317000824
:10170C00A3170008A3170008A3170008A3170008C5
:10171C00A3170008A3170008A3170008A3170008B5
:10172C00A3170008A3170008A317000851170008F7
:10173C0065170008824A934213D02CE03B68DB68A3
:10174C003B6229E03B68DB6804333B6224E03B6886
:10175C00DB6808333B621FE03B68DB680C333B62A1
:10176C001AE03B689B68002B02D104233B6213E018
:10177C003B689B68012B05D108233B627B68FA69A7
:10178C001A6109E008233B627B68FA695A6103E03D
:10179C0000233B6200E000BFBB69FF2B01D87B68D4
:1017AC0001E07B6804337B61BB69FF2B02D87B6A49
:1017BC009B0002E07B6A083B9B003B617B691A68DB
:1017CC000F213B6901FA03F3DB431A40396A3B6989
:1017DC0001FA03F31A437B691A603B685B6803F0F8
:1017EC008053002B00F09080564B9B69554A43F078
:1017FC0001039361534B9B6903F00103BB60BB680E
:10180C00514A7B6A9B08023352F82330FB607B6A97
:10181C0003F003039B000F2202FA03F3DB43FA6885
:10182C001340FB607B68494A93420DD07B68484A61
:10183C00934207D07B68474A934201D1022304E0CC
:10184C00032302E0012300E000237A6A02F0030282
:10185C0092009340FA681343FB603B497B6A9B08F8
:10186C000233FA6841F823203B685B6803F4801369
:10187C00002B06D0384B9A683749BB6913438B60F1
:10188C0006E0354B9A68BB69DB43334913408B60E8
:10189C003B685B6803F40013002B06D02E4BDA6810
:1018AC002D49BB691343CB6006E02B4BDA68BB694F
:1018BC00DB4329491340CB603B685B6803F400337E
:1018CC00002B06D0244B5A682349BB6913434B6049
:1018DC0006E0214B5A68BB69DB431F4913404B6040
:1018EC003B685B6803F48033002B06D01A4B1A68F4
:1018FC001949BB6913430B6006E0174B1A68BB69A7
:10190C00DB43154913400B607B6A01337B623B68F8
:10191C001A687B6A22FA03F3002B7FF4AFAE00BF88
:10192C0000BF2C37BD4680BC704700BF0000321092
:10193C0000003110000022100000211000001210D5
:10194C00000011100010024000000140000801408E
:10195C00000C0140001001400004014080B485B02F
:10196C0000AF78600B467B807B689A687B8813405D
:10197C00002B02D00123FB7301E00023FB73FB7BE4
:10198C0018461437BD4680BC704780B483B000AF96
:10199C0078600B467B8013467B707B78002B03D0E2
:1019AC007A887B681A6103E07B881A047B681A6169
:1019BC0000BF0C37BD4680BC704780B485B000AF0B
:1019CC0078600B467B807B68DB68FB607A88FB6801
:1019DC0013401A04FB68D9437B880B401A437B687D
:1019EC001A6100BF1437BD4680BC704780B586B005
:1019FC0000AF78607B68002B01D101236CE27B681F
:101A0C001B6803F00103002B00F08780924B5B688E
:101A1C0003F00C03042B0CD08F4B5B6803F00C030E
:101A2C00082B12D18C4B5B6803F48033B3F5803FE9
:101A3C000BD1894B1B6803F40033002B6CD07B68F3
:101A4C005B68002B68D1012346E27B685B68B3F5C9
:101A5C00803F06D1804B1B687F4A43F48033136070
:101A6C002EE07B685B68002B0CD17B4B1B687A4AA1
:101A7C0023F480331360784B1B68774A23F480235C
:101A8C0013601DE07B685B68B3F5A02F0CD1724B23
:101A9C001B68714A43F4802313606F4B1B686E4ABA
:101AAC0043F4803313600BE06B4B1B686A4A23F4DE
:101ABC0080331360684B1B68674A23F480231360E0
:101ACC007B685B68002B13D0FFF7B6FC386108E02D
:101ADC00FFF7B2FC02463B69D31A642B01D90323EE
:101AEC00FAE15D4B1B6803F40033002BF0D014E0DB
:101AFC00FFF7A2FC386108E0FFF79EFC02463B6949
:101B0C00D31A642B01D90323E6E1534B1B6803F46E
:101B1C000033002BF0D100E000BF7B681B6803F0A2
:101B2C000203002B63D04C4B5B6803F00C03002BBF
:101B3C000BD0494B5B6803F00C03082B1CD1464BB4
:101B4C005B6803F48033002B16D1434B1B6803F006
:101B5C000203002B05D07B681B69012B01D00123EC
:101B6C00BAE13D4B1B6823F0F8027B685B69DB0034
:101B7C00394913430B603AE07B681B69002B20D07A
:101B8C00364B01221A60FFF757FC386108E0FFF76B
:101B9C0053FC02463B69D31A022B01D903239BE168
:101BAC002D4B1B6803F00203002BF0D02A4B1B6853
:101BBC0023F0F8027B685B69DB00274913430B6059
:101BCC0015E0264B00221A60FFF736FC386108E05E
:101BDC00FFF732FC02463B69D31A022B01D90323CF
:101BEC007AE11D4B1B6803F00203002BF0D17B68DC
:101BFC001B6803F00803002B3AD07B689B69002B11
:101C0C0019D0174B01221A60FFF716FC386108E057
:101C1C00FFF712FC02463B69D31A022B01D90323AE
:101C2C005AE10D4B5B6A03F00203002BF0D001204C
:101C3C0000F09AFA1CE00A4B00221A60FFF7FCFB3A
:101C4C0038610FE0FFF7F8FB02463B69D31A022B11
:101C5C0008D9032340E100BF0010024000004242BB
:101C6C00800442429E4B5B6A03F00203002BE9D1D5
:101C7C007B681B6803F00403002B00F0A680002394
:101C8C00FB75974BDB6903F08053002B0DD1944B04
:101C9C00DB69934A43F08053D361914BDB6903F0CA
:101CAC008053BB60BB680123FB758E4B1B6803F430
:101CBC008073002B18D18B4B1B688A4A43F48073BA
:101CCC001360FFF7B9FB386108E0FFF7B5FB02467C
:101CDC003B69D31A642B01D90323FDE0814B1B68AC
:101CEC0003F48073002BF0D07B68DB68012B06D1EA
:101CFC007B4B1B6A7A4A43F0010313622DE07B682D
:101D0C00DB68002B0CD1764B1B6A754A23F0010360
:101D1C001362734B1B6A724A23F0040313621CE0B8
:101D2C007B68DB68052B0CD16D4B1B6A6C4A43F04E
:101D3C00040313626A4B1B6A694A43F00103136282
:101D4C000BE0674B1B6A664A23F001031362644B7A
:101D5C001B6A634A23F0040313627B68DB68002B65
:101D6C0015D0FFF769FB38610AE0FFF765FB024607
:101D7C003B69D31A41F28832934201D90323ABE079
:101D8C00574B1B6A03F00203002BEED014E0FFF755
:101D9C0053FB38610AE0FFF74FFB02463B69D31A4D
:101DAC0041F28832934201D9032395E04C4B1B6AD4
:101DBC0003F00203002BEED1FB7D012B05D1484B28
:101DCC00DB69474A23F08053D3617B68DB69002BC6
:101DDC0000F08180424B5B6803F00C03082B61D050
:101DEC007B68DB69022B46D13F4B00221A60FFF760
:101DFC0023FB386108E0FFF71FFB02463B69D31A4F
:101E0C00022B01D9032367E0354B1B6803F00073E9
:101E1C00002BF0D17B681B6AB3F5803F08D1304BA7
:101E2C005B6823F400327B689B682D4913434B603D
:101E3C002B4B5B6823F474127B68196A7B685B6AB2
:101E4C000B43274913434B60274B01221A60FFF7C2
:101E5C00F3FA386108E0FFF7EFFA02463B69D31A50
:101E6C00022B01D9032337E01D4B1B6803F00073D1
:101E7C00002BF0D02FE01C4B00221A60FFF7DCFA8D
:101E8C00386108E0FFF7D8FA02463B69D31A022BF7
:101E9C0001D9032320E0124B1B6803F00073002BC5
:101EAC00F0D118E07B68DB69012B01D1012313E031
:101EBC000B4B5B68FB60FB6803F480327B681B6A2E
:101ECC009A4206D1FB6803F470127B685B6A9A42F3
:101EDC0001D0012300E0002318461837BD4680BD11
:101EEC0000100240007000406000424280B584B097
:101EFC0000AF786039607B68002B01D10123D0E002
:101F0C006A4B1B6803F007033A689A4210D9674B77
:101F1C001B6823F0070265493B6813430B60634B56
:101F2C001B6803F007033A689A4201D00123B8E01A
:101F3C007B681B6803F00203002B20D07B681B68B6
:101F4C0003F00403002B05D0594B5B68584A43F44B
:101F5C00E06353607B681B6803F00803002B05D01B
:101F6C00534B5B68524A43F460535360504B5B686D
:101F7C0023F0F0027B689B684D4913434B607B68F0
:101F8C001B6803F00103002B40D07B685B68012BBE
:101F9C0007D1474B1B6803F40033002B15D10123E9
:101FAC007FE07B685B68022B07D1414B1B6803F019
:101FBC000073002B09D1012373E03D4B1B6803F028
:101FCC000203002B01D101236BE0394B5B6823F03A
:101FDC0003027B685B68364913434B60FFF72CFAAE
:101FEC00F8600AE0FFF728FA0246FB68D31A41F2C0
:101FFC008832934201D9032353E02D4B5B6803F0E5
:10200C000C027B685B689B009A42EBD1274B1B68E8
:10201C0003F007033A689A4210D2244B1B6823F052
:10202C00070222493B6813430B60204B1B6803F0EB
:10203C0007033A689A4201D0012332E07B681B689F
:10204C0003F00403002B08D0194B5B6823F4E06207
:10205C007B68DB68164913434B607B681B6803F095
:10206C000803002B09D0124B5B6823F460527B6889
:10207C001B69DB000E4913434B6000F021F802464C
:10208C000B4B5B681B0903F00F030A49CB5C22FA6C
:10209C0003F3094A1360094B1B681846FFF78AF9CA
:1020AC00002318461037BD4680BD00BF00200240FB
:1020BC0000100240082A00085000002054000020A4
:1020CC0080B487B000AF0023FB600023BB6000230B
:1020DC007B6100237B6000233B611E4B5B68FB60D4
:1020EC00FB6803F00C03042B02D0082B03D027E071
:1020FC00194B3B6127E0FB689B0C03F00F03174A5D
:10210C00D35C7B60FB6803F48033002B10D0114B45
:10211C005B685B0C03F00103114AD35CBB607B680A
:10212C000D4A02FB03F2BB68B2FBF3F37B6104E0E4
:10213C007B680C4A02FB03F37B617B693B6102E029
:10214C00054B3B6100BF3B6918461C37BD4680BC44
:10215C00704700BF0010024000127A00182A0008D5
:10216C00282A000800093D0080B485B000AF7860D3
:10217C000A4B1B680A4AA2FB03235B0A7A6802FB20
:10218C0003F3FB6000BFFB685A1EFA60002BF9D109
:10219C0000BF00BF1437BD4680BC70475000002004
:1021AC00D34D621080B582B000AF78607B68002B95
:1021BC0001D1012341E07B6893F83D30DBB2002B69
:1021CC0006D17B68002283F83C207868FFF75AF828
:1021DC007B68022283F83D207B681A687B68043395
:1021EC001946104600F06EFA7B68012283F84620EF
:1021FC007B68012283F83E207B68012283F83F2014
:10220C007B68012283F840207B68012283F84120FF
:10221C007B68012283F842207B68012283F84320EB
:10222C007B68012283F844207B68012283F84520D7
:10223C007B68012283F83D20002318460837BD46F1
:10224C0080BD000080B485B000AF78607B6893F8E7
:10225C003D30DBB2012B01D0012335E07B6802223B
:10226C0083F83D207B681B68DA687B681B6842F04A
:10227C000102DA607B681B68164A934209D07B68BE
:10228C001B68B3F1804F04D07B681B68124A9342E1
:10229C0011D17B681B689B6803F00703FB60FB682C
:1022AC00062B10D07B681B681A687B681B6842F091
:1022BC0001021A6007E07B681B681A687B681B6860
:1022CC0042F001021A60002318461437BD4680BC48
:1022DC00704700BF002C01400004004080B582B064
:1022EC0000AF78607B681B681B6903F00203022B4C
:1022FC0022D17B681B68DB6803F00203022B1BD125
:10230C007B681B686FF002021A617B6801221A77E6
:10231C007B681B689B6903F00303002B03D0786870
:10232C0000F0B4F905E0786800F0A7F9786800F0DF
:10233C00B6F97B6800221A777B681B681B6903F06F
:10234C000403042B22D17B681B68DB6803F00403B5
:10235C00042B1BD17B681B686FF004021A617B682D
:10236C0002221A777B681B689B6903F44073002B6D
:10237C0003D0786800F08AF905E0786800F07DF900
:10238C00786800F08CF97B6800221A777B681B68F0
:10239C001B6903F00803082B22D17B681B68DB68E0
:1023AC0003F00803082B1BD17B681B686FF0080235
:1023BC001A617B6804221A777B681B68DB6903F05F
:1023CC000303002B03D0786800F060F905E078680F
:1023DC0000F053F9786800F062F97B6800221A77F4
:1023EC007B681B681B6903F01003102B22D17B68E0
:1023FC001B68DB6803F01003102B1BD17B681B6878
:10240C006FF010021A617B6808221A777B681B68D0
:10241C00DB6903F44073002B03D0786800F036F9C5
:10242C0005E0786800F029F9786800F038F97B68E5
:10243C0000221A777B681B681B6903F00103012BD0
:10244C000ED17B681B68DB6803F00103012B07D1FD
:10245C007B681B686FF001021A617868FEF726FE34
:10246C007B681B681B6903F08003802B0ED17B6893
:10247C001B68DB6803F08003802B07D17B681B682B
:10248C006FF080021A61786800F06BFA7B681B6849
:10249C001B6903F04003402B0ED17B681B68DB6883
:1024AC0003F04003402B07D17B681B686FF04002A0
:1024BC001A61786800F0FCF87B681B681B6903F0F4
:1024CC002003202B0ED17B681B68DB6803F02003F4
:1024DC00202B07D17B681B686FF020021A6178688B
:1024EC0000F036FA00BF0837BD4680BD80B584B019
:1024FC0000AF786039600023FB737B6893F83C3045
:10250C00012B01D10223B4E07B68012283F83C202B
:10251C007B68022283F83D207B681B689B68BB604C
:10252C00BB6823F07703BB60BB6823F47F43BB60BD
:10253C007B681B68BA689A603B681B68B3F5005FE0
:10254C003ED0B3F5005F00F28780B3F5805F00F0FA
:10255C008680B3F5805F7FD8702B1AD0702B7BD818
:10256C00602B50D0602B77D8502B3CD0502B73D88D
:10257C00402B58D0402B6FD8302B64D0302B6BD8DD
:10258C00202B60D0202B67D8002B5CD0102B5AD07E
:10259C0062E07B6818683B6899683B685A683B68DE
:1025AC00DB6800F05EF97B681B689B68BB60BB68EE
:1025BC0043F07703BB607B681B68BA689A604FE096
:1025CC007B6818683B6899683B685A683B68DB68AD
:1025DC0000F047F97B681B689A687B681B6842F4BB
:1025EC0080429A603CE07B6818683B6859683B689D
:1025FC00DB681A4600F0BEF87B681B685021184651
:10260C0000F015F92CE07B6818683B6859683B684A
:10261C00DB681A4600F0DCF87B681B686021184602
:10262C0000F005F91CE07B6818683B6859683B684A
:10263C00DB681A4600F09EF87B681B684021184640
:10264C0000F0F5F80CE07B681A683B681B681946CB
:10265C00104600F0ECF803E00123FB7300E000BF30
:10266C007B68012283F83D207B68002283F83C20A4
:10267C00FB7B18461037BD4680BD80B483B000AFDD
:10268C00786000BF0C37BD4680BC704780B483B007
:10269C0000AF786000BF0C37BD4680BC704780B47B
:1026AC0083B000AF786000BF0C37BD4680BC70476C
:1026BC0080B483B000AF786000BF0C37BD4680BCDF
:1026CC007047000080B485B000AF786039607B68DB
:1026DC001B68FB607B68254A934207D07B68B3F18B
:1026EC00804F03D07B68224A934208D1FB6823F0C9
:1026FC007003FB603B685B68FA681343FB607B68A4
:10270C001A4A934207D07B68B3F1804F03D07B68A1
:10271C00174A934208D1FB6823F44073FB603B6873
:10272C00DB68FA681343FB60FB6823F080023B68AC
:10273C005B691343FB607B68FA681A603B689A68B4
:10274C007B68DA623B681A687B689A627B68074A26
:10275C00934203D13B681A697B681A637B68012238
:10276C005A6100BF1437BD4680BC7047002C014035
:10277C000004004080B487B000AFF860B9607A60A4
:10278C00FB681B6A7B61FB681B6A23F00102FB6818
:10279C001A62FB689B693B613B6923F0F0033B6168
:1027AC007B681B013A6913433B617B6923F00A0385
:1027BC007B617A69BB6813437B61FB683A699A61F8
:1027CC00FB687A691A6200BF1C37BD4680BC704733
:1027DC0080B487B000AFF860B9607A60FB681B6AA0
:1027EC007B61FB681B6A23F01002FB681A62FB68B2
:1027FC009B693B613B6923F470433B617B681B0322
:10280C003A6913433B617B6923F0A0037B61BB688E
:10281C001B017A6913437B61FB683A699A61FB6817
:10282C007A691A6200BF1C37BD4680BC704780B401
:10283C0085B000AF786039607B689B68FB60FB6893
:10284C0023F07003FB603A68FB68134343F0070303
:10285C00FB607B68FA689A6000BF1437BD4680BC89
:10286C00704780B487B000AFF860B9607A603B60A5
:10287C00FB689B687B617B6923F47F437B613B68CE
:10288C001A027B681A43BB6813437A6913437B6152
:10289C00FB687A699A6000BF1C37BD4680BC7047E4
:1028AC0080B485B000AF786039607B6893F83C30B9
:1028BC00012B01D1022341E07B68012283F83C20EB
:1028CC007B68022283F83D207B681B685B68FB6099
:1028DC007B681B689B68BB60FB6823F07003FB6024
:1028EC003B681B68FA681343FB607B681B68FA68DB
:1028FC005A607B681B68144A934209D07B681B683A
:10290C00B3F1804F04D07B681B68104A93420CD102
:10291C00BB6823F08003BB603B685B68BA681343F9
:10292C00BB607B681B68BA689A607B68012283F87D
:10293C003D207B68002283F83C2000231846143786
:10294C00BD4680BC704700BF002C01400004004015
:10295C0080B483B000AF786000BF0C37BD4680BC3C
:10296C00704780B483B000AF786000BF0C37BD46B1
:10297C0080BC704770B500260C4D0D4C641BA41028
:10298C00A64209D100F022F800260A4D0A4C641B1D
:10299C00A410A64205D170BD55F8043B98470136EA
:1029AC00EEE755F8043B98470136F2E72C2A00086D
:1029BC002C2A00082C2A0008302A0008034602445E
:1029CC00934200D1704703F8011BF9E7F8B500BF3B
:1029DC00F8BC08BC9E467047F8B500BFF8BC08BCF4
:0429EC009E4670474C
:1029F0003F0006005B004F0066006D007D00070091
:102A00007F006F00190000000000000000000000BF
:102A10000102030406070809020304050607080962
:0C2A20000A0B0C0D0E0F1010010200003C
:042A2C00310100086C
:042A30000D0100088C
:102A3400010000000100000001000000010000008E
:102A4400010000000100000001000000010000007E
:102A5400010000000100000001000000010000006E
:102A6400C800000001000000020000000300000094
:102A74000400000005000000030000000200000044
:0C2A84000024F40010000000010000001D
:040000050800134993
:00000001FF
